:08000000803102288731CD2F69
:100012008E31C4268031863135268031003A03196B
:100022001328142809280D30FB00FC30890B1728EF
:10003200FB0B1728080020001110911011119111CB
:100042000C308F31582780317108FB007008FA009C
:100052007B0821006902031D30287A086802031810
:10006200332834283A28200096149614161596152B
:100072004B28200016109610161196110230F90026
:100082008630F8009930890B4428F80B4428F90B84
:100092004428000008002000A00020308600013023
:1000A200870021308400003085000A30FB001600F2
:1000B2001A00FB0B5828FE302000A1001930A200C4
:1000C2000130A3000A30A4000430A500A6012008D4
:1000D200A7007808A8007908A9007A08AA000A30BF
:1000E200F2000030F30021308F317F278031003A57
:1000F20003197C287D284E2808002000A000A0308B
:1001020086000030870021308400003085000A30EC
:10011200FB0016001A00FB0B8A28FE302000A1000B
:100122001930A2000130A3000630A4000430A5005B
:10013200A6012008A7007808A8007908A9007A0873
:10014200AA000A30F2000030F30021308F317F27FD
:100152008031003A0319AE28AF2880280800F50143
:10016200F601700871040319B728B828E728F701C7
:10017200F70AC4280130F035F10D890BBC28013093
:10018200F4007408F707F11FC728C828BB280130FC
:10019200F535F60D890BC92871087302031DD328A2
:1001A20070087202031CD628D728DC287008F202D5
:1001B2007108F33B75140130F136F00C890BDD2820
:1001C2000130F702031DE628E728C8287608F10067
:1001D2007508F000080080310920803100302000CD
:1001E20055021A3003195402031CF828F928FE2874
:1001F2000130C2000030C3000229FF30C200FF30CC
:10020200C3005708BD005608BC00BC35BD0D3C08F4
:100212009C3EBE00FF303D3DBF004308A1004208A6
:10022200A0005308A3005208A2008F311827803182
:1002320020002108C1002008C0004108AC0040088D
:10024200AB003F08AE003E08AD0085310D25803180
:1002520008000C302000AC00AD0147298E319126F8
:100262008131003A031936293729402920002D0807
:10027200203E8600870122001908810042290030B1
:100282006B290130F20072082000AD072C082D0204
:10029200031C4C294D292F292608DF002708DE00E0
:1002A2002808F200F30172082100C5007308C60095
:1002B20020002908F200F3017208F300F20172082B
:1002C2002100C5077308C63D20002A08DD002B085F
:1002D200DC00013008008E313C26813101302000E3
:1002E200DD005D08031976297729B82980310920B4
:1002F2008131200050085104031980298129B8292D
:1003020001308F31A82781310430FD000C30FC0010
:100312003430890B8A29FC0B8A29FD0B8A2900308B
:100322008F31A82781310430FD000C30FC003430BD
:10033200890B9929FC0B9929FD0B99298E31FC26F1
:1003420081310D30FC00FC30890BA529FC0BA5295D
:100352000430FD000C30FC003430890BAE29FC0B5C
:10036200AE29FD0BAE2900308F31A827813108005C
:10037200200093111312931213109113803109204C
:100382008131003020004902193003194802031854
:10039200CB29CC29D12998151812BC01BD01E2291B
:1003A200003049024C3003194802031CD929DA29CA
:1003B200DD2998151816CE2998110130BC0000309D
:1003C200BD00003047021930031946020318EA291A
:1003D200EB29F02998161810BE01BF01012A00303E
:1003E20047024C3003194602031CF829F929FC295B
:1003F20098161814ED2998120130BE000030BF0083
:100402003C083D040319062A072A0F2A3E083F0426
:1004120003190C2A0D2A0F2A9613102A9617080080
:10042200FA01F51F152A162A1D2AF409F509F40AFC
:100432000319F50AFA01FA0AF71F202A212A2A2AA1
:10044200F609F709F60A0319F70A0130F8007808E5
:10045200FA06FB01FC01740875040319312A322AD9
:10046200612AF901F90A3E2A0130F435F50D890BAA
:10047200362A0130F8007808F907F51F412A422A86
:10048200352A0130FB35FC0D890B432A75087702AA
:10049200031D4D2A74087602031C502A512A562A3B
:1004A2007408F6027508F73B7B140130F536F40C3C
:1004B200890B572A0130F902031D602A612A422A58
:1004C2007A080319652A662A6B2AFB09FC09FB0ACA
:1004D2000319FC0A7C08F5007B08F400080080314F
:1004E2000920823110302000C0000130C1000730E5
:1004F2004102031C7D2A7E2A7F2AEA2A4008BC0088
:10050200BD013C08A0003D08A1004108BE00BF019A
:100512003E08A2003F08A3008F3118278231200035
:1005220021084902031D972A2008480203189A2A23
:100532009B2AE52A01308F31A8278231043020001E
:10054200BD000C30BC003330890BA52ABC0BA52A98
:10055200BD0BA52A003200308F31A827823104302A
:100562002000BD000C30BC003330890BB62ABC0B16
:10057200B62ABD0BB62A0032F80120004108F90064
:10058200FA01053080314C20823104302000BD0058
:100592000C30BC003330890BCC2ABC0BCC2ABD0BEF
:1005A200CC2A003200308F31A8278231043020005B
:1005B200BD000C30BC003330890BDD2ABC0BDD2AB8
:1005C200BD0BDD2A0032EA2A0130BC003C08C1071B
:1005D200782A08008E31582682318E31482682319F
:1005E20080310920823180310920823120004E0879
:1005F2004F040319FD2AFE2A172B09308F31582781
:1006020082317008003E2000E600FF30713DE700B5
:10061200102B8331E723823180310920823120007F
:100622004E084F04031D162B172B0A2B4A084B04A6
:10063200031D1C2B1D2B882B803109208231803118
:10064200EC208231200050035104031D292B2A2B58
:10065200682B4C084D04031D2F2B302B682B0130C7
:100662008F31A827823104302000C5000C30C4002D
:100672003330890B3A2BC40B3A2BC50B3A2B003281
:1006820000308F31A827823104302000C5000C30A1
:10069200C4003330890B4B2BC40B4B2BC50B4B2B9C
:1006A200003201308F31D427823104302000C5005E
:1006B2000C30C4003330890B5C2BC40B5C2BC50B94
:1006C2005C2B003200308F31A8278231882B5003F7
:1006D2005104031D6D2B6E2B882B4C034D04031DFF
:1006E200732B742B882B02308F31D4278231043044
:1006F2002000C5000C30C4003330890B7E2BC40BA4
:100702007E2BC50B7E2B003203302000D800200048
:100712004C034D04031D8E2B8F2BD62B4A084B0402
:100722000319942B952BD62B81316C218231D62B38
:100732008E31302682318031EC2082312000500807
:1007420051040319A52BA62BCF2B4A084B04031DDA
:10075200AB2BAC2BCF2B03308F31D427823104301B
:100762002000C5000C30C4003330890BB62BC40BFB
:10077200B62BC50BB62B0032CF2B80311C20823119
:100782008031092082312000500851040319CA2BFC
:10079200CB2BCF2B823170228231B02B20004A0822
:1007A2004B04031DD52BD62BBE2B023020004C064A
:1007B2004D040319DD2BDE2B992B8131B9218231B6
:1007C2008031EC208231F42A80310228200011107D
:1007D200911011119611210013141318F12BF22B01
:1007E200EE2B0B308F315827833171082000AC007B
:1007F2007008AB00210013141318002C012CFD2BE0
:1008020009308F315827833171082000AE007008FB
:10081200AD002100131413180F2C102C0C2C0A30CD
:100822008F315827833171082000B0007008AF0063
:100832002E086702031D1F2C2D0866020318222CA6
:10084200232C2D2C6508EB006408EA006508E900FA
:100852006408E8009614362C6308EB006208EA008C
:100862006308E9006208E80096102C086702031D7D
:100872003C2C2B08660203183F2C402C502C60089D
:10088200EA076108EB3D6108FD006008FC00FC35E9
:10089200FD0D7C08E8027D08E93B1615512C161166
:1008A20030086702031D572C2F08660203185A2CC2
:1008B2005B2C6B2C6108FD006008FC00FC35FD0D13
:1008C2007C08EA027D08EB3B6008E8076108E93D25
:1008D20016146C2C16106B08803AFC0080307C02D7
:1008E200031D752C64306A02031C782C792C812C30
:1008F20001302000DB009C30EA07FF30EB3D8D2CFD
:1009020002302000DB006430FC006A087C02EA004E
:100912006B090318890AEB006908803AFC008030F1
:100922007C02031D962C64306802031C992C9A2CBD
:10093200A22C01302000DA009C30E807FF30E93DAC
:10094200AE2C02302000DA006430FC0068087C0221
:10095200E80069090318890AE9002B082C04031925
:10096200B32CB42CC82C2F0830040319B92CBA2C80
:10097200C82C2D082E040319BF2CC02CC82C3230D1
:10098200EA000030EB003230E8000030E9006B088A
:10099200803AFC0080307C02031DD12CC9306A02EF
:1009A200031CD42CD52CDA2CC8302000EA000030ED
:1009B200EB0020006908803AFC0080307C02031DB5
:1009C200E42CC9306802031CE72CE82CED2CC8305B
:1009D2002000E8000030E90020006B08F1006A08FE
:1009E200F0008E31AA2683317008F80020005A08E0
:1009F200F9006908F1006808F0008E31AA268331F7
:100A02007008FA0020005B0880317E2083312E00BE
:100A12000D1021001314080020002E08803AAF00A8
:100A220080302F02031D172D01302D02031C1A2DB9
:100A32001B2D3D2D20002C08803AAF0080302F0264
:100A4200031D252D01302B02031C282D292D3D2DA0
:100A520020002E08B0002D08AF00AF35B00D2F08D2
:100A62002B02B30030082C3BB4002D082B07B50035
:100A72002E082C3DB600702D2000AE1F412D422DB8
:100A8200632D2C08803AAF0080302F02031D4B2DBE
:100A920001302B02031C4E2D4F2D632D20002D08FB
:100AA2002B02B3002E082C3BB4002E08B0002D08F8
:100AB200AF00AF35B00D2B082F07B5002C08303D25
:100AC200B600702D20002D082B02B3002E082C3BFF
:100AD200B4002D082B07B5002E082C3DB6003408B3
:100AE200803AAF0080302F02031D792D653033022A
:100AF20003187C2D7D2D8B2D20003408803AAF0009
:100B02007F302F02031D872D9C30330203188A2D5C
:100B12008B2DB02D20003408F1003308F0008E3107
:100B2200AA2685317108F5007008F4002000340807
:100B3200F7003308F6008231112285317508200052
:100B4200A1007408A0006430A2000030A3008F311D
:100B52001827853120002108B4002008B3002000A6
:100B62003608803AAF0080302F02031DBA2D65305F
:100B720035020318BD2DBE2DCC2D20003608803A3B
:100B8200AF007F302F02031DC82D9C3035020318A1
:100B9200CB2DCC2DF12D20003608F1003508F000C8
:100BA2008E31AA2685317108F5007008F400200004
:100BB2003608F7003508F6008231112285317508B2
:100BC2002000A1007408A0006430A2000030A3003D
:100BD2008F311827853120002108B6002008B50082
:100BE20020003408803AAF0080302F02031DFB2D15
:100BF20001303302031CFE2DFF2D032E0130200095
:100C0200B100062E02302000B1003608803AAF0053
:100C120080302F02031D0F2E01303502031C122ECD
:100C2200132E172E01302000B2001A2E023020009F
:100C3200B2003408F1003308F0008E31AA26853163
:100C42007008F80020003208F9003608F100350873
:100C5200F0008E31AA2685317008FA002000310892
:100C620080317E20853108001A302000BA00BB0195
:100C7200522E8E3191268631003A0319412E422E90
:100C82004B2E20003B08203E8600870122001908D7
:100C920081004D2E0030CC2F0130F8007808200062
:100CA200BB073A083B02031C572E582E3A2E260841
:100CB200F800F9017808D6007908D7002708F8006B
:100CC200F9017808F900F8017808D6077908D73DC4
:100CD200E830D6020330D73B0A30F0000030F10092
:100CE2005708F3005608F2008031B02086317108AF
:100CF2002000D7007008D6002808F800F90178080B
:100D0200D4007908D5002908F800F9017808F9001B
:100D1200F8017808D4077908D53DE830D4020330C9
:100D2200D53B0A30F0000030F1005508F3005408BA
:100D3200F2008031B020863171082000D5007008A1
:100D4200D4002A08F800F9017808D2007908D30003
:100D52002B08F800F9017808F900F8017808D207A1
:100D62007908D33DE830D2020330D33B0A30F00099
:100D72000030F1005308F3005208F2008031B02035
:100D8200863171082000D3007008D2002C08F800C8
:100D9200F90178082100C7007908C80020002D0851
:100DA200F800F9017808F900F80178082100C7076E
:100DB2007908C83DE830C7020330C83B0A30F0006A
:100DC2000030F1004808F3004708F2008031B020FB
:100DD200863171082100C8007008C70020002E0863
:100DE200F800F9017808D0007908D1002F08F8003E
:100DF200F9017808F900F8017808D0077908D13D9F
:100E020005305102DD30031950020318092F0B2F50
:100E120001300C2F0030F800F9017808D000790871
:100E2200D1003008F800F9017808CE007908CF0027
:100E32003108F800F9017808F900F8017808CE07BE
:100E42007908CF3D05304F02DD3003194E020318F9
:100E52002B2F2D2F01302E2F0030F800F9017808AA
:100E6200CE007908CF003208F800F9017808CC00EA
:100E72007908CD003308F800F9017808F900F80183
:100E82007808CC077908CD3DE8304C0603300319C9
:100E92004D06031D4D2F4E2F512FCC01CD01632F37
:100EA200DC304C06053003194D06031D592F5A2F0D
:100EB2005F2F0130CC000030CD00632F0230CC0018
:100EC2000030CD003408F800F9017808CA0079082A
:100ED200CB003508F800F9017808F900F801780824
:100EE200CA077908CB3D05304B02DD3003194A02AF
:100EF20003187C2F7E2F01307F2F0030F800F9017C
:100F02007808CA007908CB003608F800F901780899
:100F1200C8007908C9003708F800F9017808F90013
:100F2200F8017808C8077908C93D0A30F000003096
:100F3200F1004808183EF200FC30493DF3008031D0
:100F4200B020863171082000C9007008C800380836
:100F5200F800F9017808C6007908C7003908F800D6
:100F6200F9017808F900F8017808C6077908C73D41
:100F72000A30F0000030F1004608183EF200FC3062
:100F8200473DF3008031B020863171082000C70050
:100F92007008C60001300800683084008E30850079
:100FA200603086000030870010308E312A2687316B
:100FB200383084008F308500CA30860000308700C8
:100FC20020308E312A268731463084000030850059
:100FD2001A308E3124268731A030840000308500FB
:100FE2002A308E312426873120308400013085005A
:0E0FF20014308E312426873120008231EB2A04
:101C4800640080010131890B252E0034FE0012004A
:101C58001E00FE0B2B2E00340C308F3158278E318E
:101C68007008C03E2100E800FF30713DE90008001F
:101C78008E31E0268E3181312A218E31003A0319C6
:101C8800462E472E3C2E0800200091103E003814A6
:101C9800913021009300FF3098009A019C013F3059
:101CA8009D000B309E0008003E004E13CE1322000C
:101CB8001E129E169D171D161E159F1544309B005B
:101CC80010303E00A6000800323400349634003448
:101CD80096340034C0348E346434003464340034B0
:101CE8000A3409340B340134E830F0000330F100D1
:101CF80070087104031D812E822E832E8F2E2E00D4
:101D08000F1E872E882E8A2E0130902E0130F00269
:101D18000030F13B7C2E00300800E830F000033042
:101D2800F10070087104031D9A2E9B2E9C2EA82E7C
:101D38002E008F1EA02EA12EA32E0130A92E013019
:101D4800F0020030F13B952E003008007108803A0F
:101D5800F20080307202031DB32E013070020318A6
:101D6800B62EB72EC32E7009F2007109F300F20ADD
:101D78000319F30A7208F0007308F100C32E080073
:101D8800DC30860000308700203084000030850079
:101D98000630F80016001A00F80BCE2E0630F200B6
:101DA8000030F30020308F317F278E31003A03193D
:101DB800DE2EDF2EC42E0800E230860000308700B9
:101DC80020308400003085000630F80016001A0024
:101DD800F80BEA2E0630F2000030F30020308F3185
:101DE8007F278E31003A0319FA2EFB2EE02E0800C9
:101DF800D63086000030870020308400003085000F
:101E08000630F80016001A00F80B062F0630F2000C
:101E18000030F30020308F317F278E31003A0319CC
:101E2800162F172FFC2E08002000A401A501201C46
:101E38001E2F1F2F232F2208A4072308A53D01309A
:101E4800A235A30D890B242F0130A136A00C890BD4
:101E5800292F20082104031D322F332F1B2F25087B
:101E6800A1002408A0000800FE3419340134093404
:101E780000340034FE341934033409340034003497
:101E8800FE3419340234093400340034FE34193471
:101E98000134053400340034FE3419340134043478
:101EA800003400340034B234F500750821009E0077
:101EB80013140D30F200FC30890B602FF20B602FE9
:101EC80021001318682F692F642F0D08F200F30101
:101ED8007208F300F2017208F6007308F7000C08A4
:101EE800F200F3017208F6077308F73D7708F1006E
:101EF8007608F0000800F600F701992F8E31782651
:101F08008F31003A031D892F8A2F8C2F0030A72F7D
:101F180077087607F4007408860087010108220014
:101F28009A000130F4007408F7077708F400F50107
:101F380073087502031DA22F72087402031CA52FD3
:101F4800A62F822F013008002000A000B83086009C
:101F58000030870021308400003085000730F80009
:101F680016001A00F80BB42FFE302000A10019301B
:101F7800A2000130A3000830A4000130A500A6018A
:101F88002008A7000730F2000030F30021308F311D
:101F98007F278F31003A0319D22FD32FAA2F080099
:101FA8002000A000AA30860000308700213084007D
:101FB800003085000730F80016001A00F80BE02FF3
:101FC800FE302000A1001930A2000330A3000A301F
:101FD800A4000130A500A6012008A7000730F200E0
:101FE8000030F30021308F317F278F31003A0319F9
:081FF800FE2FFF2FD62F080079
:020000040001F9
:02000E008F3E23
:020012009F3F0E
:00000001FF
