:10000000803102288731CD2F8031822080318231AA
:10001000BC228031003A03190E280F28042808005A
:10002000F11B13281428152820287009F2007109E3
:10003000F300F20A0319F30A7208F0007308F100E2
:100040000800803166208031863139268031003ABF
:1000500003192B282C2821280D30FB00FC30890B9C
:100060002F28FB0B2F280800E830F0000330F100A8
:1000700070087104031D3D283E283F284B282E00A0
:100080000F1E43284428462801304C280130F00236
:100090000030F13B382800300800E830F000033031
:1000A000F10070087104031D562857285828642849
:1000B0002E008F1E5C285D285F28013065280130E6
:1000C000F0020030F13B512800300800D9308600A2
:1000D0000030870020308400003085000630F800B2
:1000E00016001A00F80B70280630F2000030F300FA
:1000F0002030813121218031003A03198028812864
:1001000066280800DF308600003087002030840039
:10011000003085000630F80016001A00F80B8C2815
:100120000630F2000030F30020308131212180318F
:10013000003A03199C289D2882280800D3308600A5
:100140000030870020308400003085000630F80041
:1001500016001A00F80BA8280630F2000030F30051
:100160002030813121218031003A0319B828B92883
:100170009E2808002000A401A501201CC028C12839
:10018000C5282208A4072308A53D0130A235A30DE8
:10019000890BC6280130A136A00C890BCB2820087A
:1001A0002104031DD428D528BD282508A100240832
:1001B000A0000800FE34193401340934013400343D
:1001C000FE3419340334093400340034FE34193455
:1001D0000234093400340034FE3419340134053457
:1001E00000340034FE341934013404340034003453
:1001F0000034B234F500750821009E0013140D3050
:10020000F200FC30890B0229F20B0229210013189D
:100210000A290B2906290D08F200F3017208F300E0
:10022000F2017208F6007308F7000C08F200F301FF
:100230007208F6077308F73D7708F1007608F000BA
:100240000800F600F7013B29803134208131003A63
:10025000031D2B292C292E290030492977087607E0
:10026000F400740886008701010822009A0001301A
:10027000F4007408F7077708F400F50173087502B5
:10028000031D442972087402031C472948292429A4
:10029000013008002000A000B83086000030870040
:1002A00021308400003085000730F80016001A0065
:1002B000F80B5629FE302000A1001930A2000130B1
:1002C000A3000830A4000130A500A6012008A70063
:1002D0000730F2000030F3002130813121218131DB
:1002E000003A0319742975294C2908002000A00040
:1002F000B130860000308700213084000030850056
:100300000730F80016001A00F80B8229FE30200092
:10031000A1001930A2000130A3000930A40001306F
:10032000A500A6012008A7000730F2000030F30066
:100330002130813121218131003A0319A029A129DD
:1003400078290800200011109110111191110C3022
:100350008031FA2081317108FB007008FA007B08B7
:1003600021006602031DB6297A0865020318B9291F
:10037000BA29C02920009614961416159615D1296D
:10038000200016109610161196110230F9008630D2
:10039000F8009930890BCA29F80BCA29F90BCA2928
:1003A000000008002000A000A03086000030870078
:1003B00021308400003085000A30FB0016001A004E
:1003C000FB0BDE29FE302000A1001930A200013015
:1003D000A3000630A4000430A500A6012008A70051
:1003E0007808A8007908A9007A08AA000A30F20063
:1003F0000030F3002130813121218131003A03198D
:10040000022A032AD4290800F501F60170087104B4
:1004100003190B2A0C2A3B2AF701F70A182A013084
:10042000F035F10D890B102A0130F4007408F7073C
:10043000F11F1B2A1C2A0F2A0130F535F60D890BF6
:100440001D2A71087302031D272A70087202031CFB
:100450002A2A2B2A302A7008F2027108F33B7514FD
:100460000130F136F00C890B312A0130F702031DFF
:100470003A2A3B2A1C2A7608F1007508F000080089
:100480008031212082310030200055021A300319BA
:100490005402031C4C2A4D2A522A0130C20000305B
:1004A000C300562AFF30C200FF30C3005708BD000A
:1004B0005608BC00BC35BD0D3C089C3EBE00FF305C
:1004C0003D3DBF004308A1004208A0005308A3001F
:1004D0005208A2008031BA20823120002108C100D8
:1004E0002008C0004108AC004008AB003F08AE0047
:1004F0003E08AD008531112582310800803104208D
:10050000823101302000DD005D080319882A892A24
:10051000BB2A80312120823120004E084F0403196C
:10052000922A932ABB2A013081314A2182310D302F
:10053000FC00FC30890B9A2AFC0B9A2A013081318D
:100540007621823180319E2082310D30FC00FC30DA
:10055000890BA82AFC0BA82A003081314A2182315C
:100560000430FD000C30FC003430890BB52AFC0B44
:10057000B52AFD0BB52A08000C302000AC00AD01F7
:10058000D92A80314D208231003A0319C82AC92A5C
:10059000D22A20002D08203E86008701220019085B
:1005A0008100D42A0030FD2A0130F20072082000B8
:1005B000AD072C082D02031CDE2ADF2AC12A2608DB
:1005C000DF002708DE002808F200F301720821008E
:1005D000C5007308C60020002908F200F301720864
:1005E000F300F20172082100C5077308C63D200020
:1005F0002A08DD002B08DC00013008008F31E027DD
:1006000082318031212082318F31D0278231200008
:100610004C084D0403190D2B0E2B3C2B0930803157
:10062000FA2082317008003E2000E600FF30713D64
:10063000E700202B84310524823180312120823152
:1006400020004C084D04031D262B272B1A2B3C2B76
:100650008F31C4278231823140228231352B813162
:10066000A2218231803121208231200048084904B2
:10067000031D3B2B3C2B2F2B02304A064B04031946
:10068000422B432B282B82317E22823183314E2311
:100690008231823140228231803102282000931140
:1006A00013129312131091138031212083310030E3
:1006B000200047021930031946020318602B612BF2
:1006C000662B98151812BC01BD01772B003047022C
:1006D0004C3003194602031C6E2B6F2B722B98159E
:1006E0001816632B98110130BC000030BD0000309B
:1006F000450219300319440203187F2B802B852BE8
:1007000098161810BE01BF01962B003045024C30E0
:1007100003194402031C8D2B8E2B912B9816181451
:10072000822B98120130BE000030BF003C083D040F
:1007300003199B2B9C2BA42B3E083F040319A12BD0
:10074000A22BA42B9617A52B96130800FA01F51FD0
:10075000AA2BAB2BB22BF409F509F40A0319F50AFD
:10076000FA01FA0AF71FB52BB62BBF2BF609F709CA
:10077000F60A0319F70A0130F8007808FA06FB01B7
:10078000FC01740875040319C62BC72BF62BF9015D
:10079000F90AD32B0130F435F50D890BCB2B013041
:1007A000F8007808F907F51FD62BD72BCA2B013094
:1007B000FB35FC0D890BD82B75087702031DE22B46
:1007C00074087602031CE52BE62BEB2B7408F6026B
:1007D0007508F73B7B140130F536F40C890BEC2BD4
:1007E0000130F902031DF52BF62BD72B7A080319DC
:1007F000FA2BFB2B002CFB09FC09FB0A0319FC0A52
:100800007C08F5007B08F40008002000111091100E
:10081000111196112100131413180F2C102C0C2CED
:100820000B308031FA20843171082000AC00700850
:10083000AB002100131413181E2C1F2C1B2C093085
:100840008031FA20843171082000AE007008AD00BC
:100850002100131413182D2C2E2C2A2C0A30803131
:10086000FA20843171082000B0007008AF002E0813
:100870006702031D3D2C2D0866020318402C412CF5
:100880004B2C6508EB006408EA006508E900640881
:10089000E8009614542C6308EB006208EA00630831
:1008A000E9006208E80096102C086702031D5A2C24
:1008B0002B08660203185D2C5E2C6E2C6008EA077C
:1008C0006108EB3D6108FD006008FC00FC35FD0D92
:1008D0007C08E8027D08E93B16156F2C16113008DC
:1008E0006702031D752C2F0866020318782C792CDB
:1008F000892C6108FD006008FC00FC35FD0D7C08BA
:10090000EA027D08EB3B6008E8076108E93D161440
:100910008A2C16106B08803AFC0080307C02031D84
:10092000932C64306A02031C962C972C9F2C013068
:100930002000DB009C30EA07FF30EB3DAB2C02309F
:100940002000DB006430FC006A087C02EA006B09CE
:100950000318890AEB006908803AFC0080307C02A9
:10096000031DB42C64306802031CB72CB82CC02CB7
:1009700001302000DA009C30E807FF30E93DCC2C44
:1009800002302000DA006430FC0068087C02E800D5
:1009900069090318890AE9006B08803AFC00803075
:1009A0007C02031DD52CC9306A02031CD82CD92C1B
:1009B000DE2CC8302000EA000030EB00200069087F
:1009C000803AFC0080307C02031DE82CC9306802AC
:1009D000031CEB2CEC2CF12CC8302000E80000307C
:1009E000E90020006B08F1006A08F0008031102057
:1009F00084317008F80020005A08F9006908F100F5
:100A00006808F0008031102084317008FA0020005E
:100A10005B088131D22184312E000D102100131486
:100A2000080020002E08803AAF0080302F02031DFE
:100A30001B2D01302D02031C1E2D1F2D412D2000CA
:100A40002C08803AAF0080302F02031D292D013081
:100A50002B02031C2C2D2D2D412D20002E08B00023
:100A60002D08AF00AF35B00D2F082B02B3003008B2
:100A70002C3BB4002D082B07B5002E082C3DB600EA
:100A8000742D2000AE1F452D462D672D2C08803A71
:100A9000AF0080302F02031D4F2D01302B02031CAD
:100AA000522D532D672D20002D082B02B3002E0848
:100AB0002C3BB4002E08B0002D08AF00AF35B00DB0
:100AC0002B082F07B5002C08303DB600742D2000F0
:100AD0002D082B02B3002E082C3BB4002D082B0749
:100AE000B5002E082C3DB6003408803AAF008030A7
:100AF0002F02031D7D2D653033020318802D812DBB
:100B00008F2D20003408803AAF007F302F02031D64
:100B10008B2D9C30330203188E2D8F2DB42D200089
:100B20003408F1003308F00080311020853171085D
:100B3000F5007008F40020003408F7003308F600D0
:100B40008331A623853175082000A1007408A00018
:100B50006430A2000030A3008031BA20853120002B
:100B60002108B4002008B30020003608803AAF0006
:100B700080302F02031DBE2D653035020318C12DB4
:100B8000C22DD02D20003608803AAF007F302F02D2
:100B9000031DCC2D9C3035020318CF2DD02DF52D03
:100BA00020003608F1003508F00080311020853132
:100BB0007108F5007008F40020003608F7003508C9
:100BC000F6008331A623853175082000A100740842
:100BD000A0006430A2000030A3008031BA2085312B
:100BE00020002108B6002008B50020003408803A13
:100BF000AF0080302F02031DFF2D01303302031C94
:100C0000022E032E072E01302000B1000A2E0230E2
:100C10002000B1003608803AAF0080302F02031D5B
:100C2000132E01303502031C162E172E1B2E0130F9
:100C30002000B2001E2E02302000B2003408F10065
:100C40003308F0008031102085317008F800200052
:100C50003208F9003608F1003508F0008031102024
:100C600085317008FA00200031088131D2218531A8
:100C700008001A302000BA00BB01562E80314D20EA
:100C80008631003A0319452E462E4F2E20003B0890
:100C9000203E86008701220019088100512E003075
:100CA000CC2F0130F80078082000BB073A083B023F
:100CB000031C5B2E5C2E3E2E2608F800F9017808F6
:100CC000D6007908D7002708F800F9017808F9005C
:100CD000F8017808D6077908D73DE830D602033006
:100CE000D73B0A30F0000030F1005708F3005608F7
:100CF000F20082310422863171082000D70070088A
:100D0000D6002808F800F9017808D4007908D50041
:100D10002908F800F9017808F900F8017808D407E3
:100D20007908D53DE830D4020330D53B0A30F000D5
:100D30000030F1005508F3005408F200823104221B
:100D4000863171082000D5007008D4002A08F80008
:100D5000F9017808D2007908D3002B08F800F901CE
:100D60007808F900F8017808D2077908D33DE8300F
:100D7000D2020330D33B0A30F0000030F1005308B8
:100D8000F3005208F20082310422863171082000FB
:100D9000D3007008D2002C08F800F9017808D000C0
:100DA0007908D1002D08F800F9017808F900F80158
:100DB0007808D0077908D13DE830D0020330D13B24
:100DC0000A30F0000030F1005108F3005008F20042
:100DD00082310422863171082000D1007008D000D1
:100DE0002E08F800F9017808CE007908CF002F0806
:100DF000F800F9017808F900F8017808CE077908B9
:100E0000CF3D05304F02DD3003194E020318092F84
:100E10000B2F01300C2F0030F800F9017808CE00BC
:100E20007908CF003008F800F9017808CC0079087B
:100E3000CD003108F800F9017808F900F8017808C8
:100E4000CC077908CD3D05304D02DD3003194C0249
:100E500003182B2F2D2F01302E2F0030F800F90111
:100E60007808CC007908CD003208F800F90178083C
:100E7000CA007908CB003308F800F9017808F900B6
:100E8000F8017808CA077908CB3DE8304A060330F4
:100E900003194B06031D4D2F4E2F512FCA01CB01B5
:100EA000632FDC304A06053003194B06031D592F0A
:100EB0005A2F5F2F0130CA000030CB00632F023061
:100EC000CA000030CB003408F800F9017808C800E7
:100ED0007908C9003508F800F9017808F900F80127
:100EE0007808C8077908C93D05304902DD30031983
:100EF000480203187C2F7E2F01307F2F0030F8002E
:100F0000F9017808C8007908C9003608F800F90125
:100F10007808C6007908C7003708F800F901780892
:100F2000F900F8017808C6077908C73D0A30F000D3
:100F30000030F1004608183EF200FC30473DF30057
:100F400082310422863171082000C7007008C60073
:100F50003808F800F9017808C4007908C500390894
:100F6000F800F9017808F900F8017808C407790851
:100F7000C53D0A30F0000030F1004408183EF20090
:100F8000FC30453DF3008231042286317108200097
:100F9000C5007008C40001300800F03084008F30B4
:100FA0008500603086000030870010308F31BE270A
:100FB0008731DA30840080308500C7308600003009
:100FC000870020308F31BE278731443084000030C5
:100FD00085001C308F31B8278731A0308400003065
:100FE000850027308F31B8278731203084000130C9
:100FF000850014308F31B827873120008231FE2AD6
:101F7000640080010131890BB92F0034FE0012008A
:101F80001E00FE0BBF2F00340C308031FA208F3141
:101F90007008C03E2100E500FF30713DE6000800FA
:101FA000200091103E003814913021009300FF3042
:101FB00098009A019C013F309D000B309E00080064
:101FC0003E004E13CE1322001E129E169D171D16A4
:101FD0001E159F1544309B0010303E00A6000800DF
:101FE000323400349634003496340034C0348E34A5
:101FF00064340034643400340A3409340B3401345A
:020000040001F9
:02000E008F3E23
:020012009F3F0E
:00000001FF
