:08000000803102288731CD2F69
:1003E800640080010131890BF5290034FE001200F8
:1003F8001E00FE0BFB2900340C308231EC228231C6
:100408007008803E2000E100FF30713DE2000800E6
:100418000034B234193400343234003464340034D3
:10042800C0348E340A3409340B340134200091105E
:100438003E003814913021009300FF3098009A0153
:100448009C013F309D000B309E0008003E004E137B
:10045800CE1322001E129E169D171D161E159F15DF
:1004680044309B0010303E00A6000800F11B3D2AD6
:100478003E2A3F2A4A2A7009F2007109F300F20A5B
:100488000319F30A7208F0007308F10008008231BA
:100498009022823186315D268231003A0319552A2D
:1004A800562A4B2A0D30FB00FC30890B592AFB0BCE
:1004B800592A0800E830F0000330F1007008710490
:1004C800031D672A682A692A752A2E000F1E6D2ABD
:1004D8006E2A702A0130762A0130F0020030F13B92
:1004E800622A00300800E830F0000330F10070089C
:1004F8007104031D802A812A822A8E2A2E008F1ECB
:10050800862A872A892A01308F2A0130F002003092
:10051800F13B7B2A00300800D93086000030870084
:1005280020308400003085000630F80016001A00DC
:10053800F80B9A2A0630F2000030F300203083319D
:100548003B238231003A0319AA2AAB2A902A0800D1
:100558002000A401A501201CB22AB32AB72A220828
:10056800A4072308A53D0130A235A30D890BB82A9D
:100578000130A136A00C890BBD2A20082104031DD7
:10058800C62AC72AAF2A2508A1002408A000080007
:10059800FE3419340134093401340034FE3419347A
:1005A8000334093400340034FE3419340234093475
:1005B80000340034FE341934013405340034003476
:1005C800FE3419340134043400340034193400344E
:1005D800F500750821009E0013140D30F200FC3060
:1005E800890BF42AF20BF42A21001318FC2AFD2A9D
:1005F800F82A0D08F200F3017208F300F2017208FC
:10060800F6007308F7000C08F200F3017208F60709
:100618007308F73D7708F1007608F000080020001D
:1006280093170C308231EC2283317108FA0070087C
:10063800F9007A0820006202031D242B7908610260
:100648000318272B282B2A2B96143A2B0D30F80049
:10065800FC30890B2D2BF80B2D2B200096100D301C
:10066800F800FC30890B362BF80B362B0800F60007
:10067800F701552B82315E228331003A031D452B49
:10068800462B482B0030632B77087607F400740854
:1006980086008701010822009A000130F4007408DE
:1006A800F7077708F400F50173087502031D5E2B40
:1006B80072087402031C612B622B3E2B0130080068
:1006C8002000A000A0308600003087002130840080
:1006D800003085000A30FB0016001A00FB0B702B57
:1006E800FE302000A1001930A2000130A30006301E
:1006F800A4000430A500A6012008A7007808A800D7
:100708007908A9007A08AA000A30F2000030F3003C
:10071800213083313B238331003A0319942B952BE5
:10072800662B0800F501F6017008710403199D2B6A
:100738009E2BCD2BF701F70AAA2B0130F035F10DCE
:10074800890BA22B0130F4007408F707F11FAD2BB9
:10075800AE2BA12B0130F535F60D890BAF2B7108A7
:100768007302031DB92B70087202031CBC2BBD2B2E
:10077800C22B7008F2027108F33B75140130F13690
:10078800F00C890BC32B0130F702031DCC2BCD2BAA
:10079800AE2B7608F1007508F000080082314B2274
:1007A80083310030200059021A3003195802031C03
:1007B800DE2BDF2BE42B0130C2000030C300E82B16
:1007C800FF30C200FF30C3005B08BD005A08BC0000
:1007D800BC35BD0D3C089C3EBE00FF303D3DBF0012
:1007E8004308A1004208A0005708A3005608A20029
:1007F8008231AC22833120002108C1002008C000CA
:100808004108AC004008AB003F08AE003E08AD0010
:10081800853135258331080082312A22843182319D
:100828004B22843182311A2284312000500851042D
:1008380003191F2C202C392C09308231EC228431E9
:100848007008003E2000E900FF30713DEA00322CBC
:100858008431CA24843182314B22843120005008EB
:100868005104031D382C392C2C2C02304E064F0411
:10087800031D3F2C402C512C8231002284314A2CFC
:1008880083311323843182314B22843120004C0878
:100898004D04031D502C512C442C82314B228431A1
:1008A800200052035304031D5A2C5B2C662C5F2C2A
:1008B80082314B2284312000520353040319652CE2
:1008C800662C5C2C8331D223843180310228FA01D2
:1008D800F51F6F2C702C772CF409F509F40A03190D
:1008E800F50AFA01FA0AF71F7A2C7B2C842CF609F0
:1008F800F709F60A0319F70A0130F8007808FA062A
:10090800FB01FC017408750403198B2C8C2CBB2C7F
:10091800F901F90A982C0130F435F50D890B902C62
:100928000130F8007808F907F51F9B2C9C2C8F2CB8
:100938000130FB35FC0D890B9D2C75087702031DD2
:10094800A72C74087602031CAA2CAB2CB02C7408B4
:10095800F6027508F73B7B140130F536F40C890B69
:10096800B12C0130F902031DBA2CBB2C9C2C7A083F
:100978000319BF2CC02CC52CFB09FC09FB0A031961
:10098800FC0A7C08F5007B08F40008002000111020
:1009980091101111210013141318D32CD42CD02C1E
:1009A8000B308231EC2284317108F9007008F800AC
:1009B800210013141318E12CE22CDE2C09308231AB
:1009C800EC2284317108FB007008FA00210013142E
:1009D8001318EF2CF02CEC2C0A308231EC228431E5
:1009E8007108FD007008FC0020006A087B02031DE6
:1009F800FF2C69087A020318022D032D092D6808B7
:100A0800C5006708C40096140E2D6608C500650861
:100A1800C40096106A087902031D142D690878022B
:100A28000318172D182D1E2D6308C4026408C53B32
:100A380016151F2D16116A087D02031D252D69083C
:100A48007C020318282D292D2F2D6308C40764085C
:100A5800C53D1614302D16102E000D10210013144C
:100A6800080020002E08803AAF0080302F02031DB6
:100A78003F2D01302D02031C422D432D652D2000F2
:100A88002C08803AAF0080302F02031D4D2D013015
:100A98002B02031C502D512D652D20002E08B0006F
:100AA8002D08AF00AF35B00D2F082B02B30030086A
:100AB8002C3BB4002D082B07B5002E082C3DB600A2
:100AC800982D2000AE1F692D6A2D8B2D2C08803A99
:100AD800AF0080302F02031D732D01302B02031C41
:100AE800762D772D8B2D20002D082B02B3002E0894
:100AF8002C3BB4002E08B0002D08AF00AF35B00D68
:100B08002B082F07B5002C08303DB600982D200083
:100B18002D082B02B3002E082C3BB4002D082B0700
:100B2800B5002E082C3DB6003408803AAF0080305E
:100B38002F02031DA12D653033020318A42DA52D06
:100B4800B32D20003408803AAF007F302F02031DF8
:100B5800AF2D9C3033020318B22DB32DD82D2000B1
:100B68003408F1003308F00082313A2285317108E7
:100B7800F5007008F40020003408F7003308F60088
:100B880084316B24853175082000A1007408A00009
:100B98006430A2000030A3008231AC2285312000ED
:100BA8002108B4002008B30020003608803AAF00BE
:100BB80080302F02031DE22D653035020318E52D24
:100BC800E62DF42D20003608803AAF007F302F0242
:100BD800031DF02D9C3035020318F32DF42D192E2A
:100BE80020003608F1003508F00082313A228531BC
:100BF8007108F5007008F40020003608F700350881
:100C0800F60084316B24853175082000A100740832
:100C1800A0006430A2000030A3008231AC228531EC
:100C280020002108B6002008B50020003408803ACA
:100C3800AF0080302F02031D232E01303302031C26
:100C4800262E272E2B2E01302000B1002E2E02300A
:100C58002000B1003608803AAF0080302F02031D13
:100C6800372E01303502031C3A2E3B2E3F2E013021
:100C78002000B200422E02302000B2003408F100F9
:100C88003308F00082313A2285317008F8002000DC
:100C98003208F9003608F1003508F00082313A22AE
:100CA80085317008FA0020003108833164238531CA
:100CB80008001A302000BA00BB017A2E8231772250
:100CC8008631003A0319692E6A2E732E20003B08DC
:100CD800203E86008701220019088100752E003009
:100CE800CC2F0130F80078082000BB073A083B02F7
:100CF800031C7F2E802E622E2608F800F901780842
:100D0800DA007908DB002708F800F9017808F9000B
:100D1800F8017808DA077908DB3DE830DA020330B1
:100D2800DB3B0A30F0000030F1005B08F3005A08A2
:100D3800F20083319623863171082000DB007008A9
:100D4800DA002808F800F9017808D8007908D900ED
:100D58002908F800F9017808F900F8017808D80797
:100D68007908D93DE830D8020330D93B0A30F00081
:100D78000030F1005908F3005808F2008331962337
:100D8800863171082000D9007008D8002A08F800B8
:100D9800F9017808D6007908D7002B08F800F9017E
:100DA8007808F900F8017808D6077908D73DE830BF
:100DB800D6020330D73B0A30F0000030F100570864
:100DC800F3005608F200833196238631710820001B
:100DD800D7007008D6002C08F800F9017808D4006C
:100DE8007908D5002D08F800F9017808F900F8010C
:100DF8007808D4077908D53DE830D4020330D53BCC
:100E08000A30F0000030F1005508F3005408F200F1
:100E180083319623863171082000D5007008D400EC
:100E28002E08F800F9017808D2007908D3002F08B5
:100E3800F800F9017808F900F8017808D20779086C
:100E4800D33D05305302DD300319520203182D2F0C
:100E58002F2F0130302F0030F800F9017808D20028
:100E68007908D3003008F800F9017808D00079082B
:100E7800D1003108F800F9017808F900F80178087C
:100E8800D0077908D13D05305102DD3003195002F1
:100E980003184F2F512F0130522F0030F800F9015D
:100EA8007808D0007908D1003208F800F9017808EC
:100EB800CE007908CF003308F800F9017808F90066
:100EC800F8017808CE077908CF3DE8304E060330A0
:100ED80003194F06031D712F722F752FCE01CF01F5
:100EE800872FDC304E06053003194F06031D7D2F72
:100EF8007E2F832F0130CE000030CF00872F0230A5
:100F0800CE000030CF003408F800F9017808CC0092
:100F18007908CD003508F800F9017808F900F801DA
:100F28007808CC077908CD3D05304D02DD3003192E
:100F38004C020318A02FA22F0130A32F0030F80075
:100F4800F9017808CC007908CD003608F800F901D5
:100F58007808CA007908CB003708F800F901780842
:100F6800F900F8017808CA077908CB3D3808F80075
:100F7800F9017808C8007908C9003908F800F901AA
:100F88007808F900F8017808C8077908C93D0130E0
:100F980008000C3084008230850061308600003003
:100FA80087000E308131FA218731CC3084008230BD
:100FB8008500C73086000030870020308131FA2153
:100FC800873144308400003085001D308131F421A0
:100FD8008731A03084000030850027308131F4212A
:100FE8008731203084000130850014308131F421AC
:080FF800873120008431102C28
:020000040001F9
:02000E008F3E23
:020012009F3F0E
:00000001FF
