:08000000803102288731CD2F69
:10006200640080010131890B32280034FE00120045
:100072001E00FE0B382800340C308131782180318B
:100082007008C03E2000DE00FF30713DDF00080036
:10009200813102218031833138238031003A0319C2
:1000A2005328542849280800200091103E00381493
:1000B200913021009300FF3098009A019C013F305B
:1000C2009D000B309E0008003E004E13CE1322000E
:1000D2001E129E169D171D161E159F1544309B005D
:1000E20010303E00A60008000034B234323400342E
:1000F20096340034AF340034C0348E346434003467
:10010200643400340A3409340B3401348031E6207B
:10011200803186315A268031003A0319912892287B
:1001220087280D30FB00FC30890B9528FB0B9528A6
:100132000800E830F0000330F10070087104031D7C
:10014200A328A428A528B1282E000F1EA928AA2872
:10015200AC280130B2280130F0020030F13B9E2879
:1001620000300800E830F0000330F100700871043C
:10017200031DBC28BD28BE28CA282E008F1EC228F7
:10018200C328C5280130CB280130F0020030F13BF2
:10019200B728003008007108803AF20080307202FD
:1001A200031DD528013070020318D828D928E52864
:1001B2007009F2007109F300F20A0319F30A7208D6
:1001C200F0007308F100E5280800DB3086000030FB
:1001D200870020308400003085000630F8001600C9
:1001E2001A00F80BF0280630F2000030F30020303D
:1001F20081319F218031003A031900290129E62823
:100202000800E13086000030870020308400003092
:1002120085000630F80016001A00F80B0C2906308B
:10022200F2000030F300203081319F218131003A09
:1002320003191C291D2902290800D5308600003027
:10024200870020308400003085000630F800160058
:100252001A00F80B28290630F2000030F300203093
:1002620081319F218131003A0319382939291E2908
:100272000800FE3419340134093401340034FE34E8
:1002820019340334093400340034FE34193402348E
:10029200093400340034FE34193401340534003496
:1002A2000034FE34193401340434003400342000A4
:1002B200A401A501201C5E295F2963292208A40745
:1002C2002308A53D0130A235A30D890B6429013015
:1002D200A136A00C890B692920082104031D72296B
:1002E20073295B292508A1002408A0000800F50055
:1002F200750821009E0013140D30F200FC30890BAA
:100302008029F20B80292100131888298929842940
:100312000D08F200F3017208F300F2017208F60010
:100322007308F7000C08F200F3017208F60773086D
:10033200F73D7708F1007608F0000800F600F701B3
:10034200B92980319A208131003A031DA929AA29AD
:10035200AC290030C72977087607F40074088600B4
:100362008701010822009A000130F4007408F7079F
:100372007708F400F50173087502031DC22972089B
:100382007402031CC529C629A229013008002000D5
:10039200A000B83086000030870021308400003091
:1003A20085000730F80016001A00F80BD429FE3039
:1003B2002000A1001930A2000130A3000830A400DF
:1003C2000130A500A6012008A7000730F200003086
:1003D200F300213081319F218131003A0319F22942
:1003E200F329CA2908002000A000B130860000309D
:1003F200870021308400003085000730F8001600A5
:100402001A00F80B002AFE302000A1001930A200C9
:100412000130A3000930A4000130A500A601200884
:10042200A7000730F2000030F300213081319F2114
:100432008131003A03191E2A1F2AF62908002000DA
:1004420011109110111191110C30813178218231EA
:100452007108FB007008FA007B0820005F02031D90
:10046200342A7A085E020318372A382A3D2A96145B
:100472009614161596154D2A1610961016119611E9
:100482000230F9008630F8009930890B462AF80BC1
:10049200462AF90B462A000008002000A000A030DE
:1004A20086000030870021308400003085000A3049
:1004B200FB0016001A00FB0B5A2AFE302000A10096
:1004C2001930A2000130A3000630A4000430A500B8
:1004D200A6012008A7007808A8007908A9007A08D0
:1004E200AA000A30F2000030F300213081319F214E
:1004F2008231003A03197E2A7F2A502A0800F50128
:10050200F601700871040319872A882AB72AF701AD
:10051200F70A942A0130F035F10D890B8C2A01304B
:10052200F4007408F707F11F972A982A8B2A0130E2
:10053200F535F60D890B992A71087302031DA32A5A
:1005420070087202031CA62AA72AAC2A7008F202BB
:100552007108F33B75140130F136F00C890BAD2AAA
:100562000130F702031DB62AB72A982A7608F1004D
:100572007508F000080080318720823100302000A9
:1005820053021A3003195202031CC82AC92ACE2A5E
:100592000130C2000030C300D22AFF30C200FF3057
:1005A200C3005508BD005408BC00BC35BD0D3C0855
:1005B2009C3EBE00FF303D3DBF004308A100420803
:1005C200A0005108A3005008A200813158218231B5
:1005D20020002108C1002008C0004108AC004008EA
:1005E200AB003F08AE003E08AD00853132258231B6
:1005F200080080314920823101302000DB005B0895
:100602000319042B052B372B8031872082312000E0
:100612004C084D0403190E2B0F2B372B013081315F
:10062200C82182310D30FC00FC30890B162BFC0BEB
:10063200162B01308131F421823181311E21823128
:100642000D30FC00FC30890B242BFC0B242B0030DA
:100652008131C82182310430FD000C30FC0034307D
:10066200890B312BFC0B312BFD0B312B08000C308D
:100672002000AC00AD01552B8031B3208331003A0C
:100682000319442B452B4E2B20002D08203E8600BB
:100692008701220019088100502B0030792B01308C
:1006A200F20072082000AD072C082D02031C5A2B01
:1006B2005B2B3D2B2608DD002708DC002808F20012
:1006C200F30172082100C5007308C6002000290842
:1006D200F200F3017208F300F20172082100C5076B
:1006E2007308C63D20002A08DB002B08DA0001301F
:1006F2000800803165208331803187208331803149
:100702005520833120004A084B040319892B8A2B78
:10071200B82B09308131782183317008003E2000E6
:10072200E600FF30713DE7009C2B843126248331A3
:1007320080318720833120004A084B04031DA22BFD
:10074200A32B962BB82B80313D2083318231BC22E2
:100752008331B12B82312022833180318720833152
:10076200200046084704031DB72BB82BAB2B0230E1
:10077200480649040319BE2BBF2BA42B8231FA224F
:1007820083318231BC22833180310228FA01F51F84
:10079200CB2BCC2BD32BF409F509F40A0319F50A58
:1007A200FA01FA0AF71FD62BD72BE02BF609F70925
:1007B200F60A0319F70A0130F8007808FA06FB0175
:1007C200FC01740875040319E72BE82B172CF901B7
:1007D200F90AF42B0130F435F50D890BEC2B0130BD
:1007E200F8007808F907F51FF72BF82BEB2B0130EF
:1007F200FB35FC0D890BF92B75087702031D032CC1
:1008020074087602031C062C072C0C2C7408F602C2
:100812007508F73B7B140130F536F40C890B0D2C6F
:100822000130F902031D162C172CF82B7A08031934
:100832001B2C1C2C212CFB09FC09FB0A0319FC0AAA
:100842007C08F5007B08F4000800200011109110CC
:1008520011119611210013141318302C312C2D2C48
:100862000B3081317821843171082000AC0070088E
:10087200AB002100131413183F2C402C3C2C0930E0
:1008820081317821843171082000AE007008AD00FA
:100892002100131413184E2C4F2C4B2C0A3081318B
:1008A2007821843171082000B0007008AF002E0852
:1008B2006702031D5E2C2D0866020318612C622C50
:1008C2006C2C6508EB006408EA006508E90064081E
:1008D200E8009614752C6308EB006208EA006308CE
:1008E200E9006208E80096102C086702031D7B2CC1
:1008F2002B08660203187E2C7F2C8F2C6008EA07D7
:100902006108EB3D6108FD006008FC00FC35FD0D4F
:100912007C08E8027D08E93B1615902C1611300878
:100922006702031D962C2F0866020318992C9A2C35
:10093200AA2C6108FD006008FC00FC35FD0D7C0856
:10094200EA027D08EB3B6008E8076108E93D1614FE
:10095200AB2C16106B08803AFC0080307C02031D21
:10096200B42C64306A02031CB72CB82CC02C0130A2
:100972002000D9009C30EA07FF30EB3DCC2C02303E
:100982002000D9006430FC006A087C02EA006B098E
:100992000318890AEB006908803AFC0080307C0267
:1009A200031DD52C64306802031CD82CD92CE12CF1
:1009B20001302000D8009C30E807FF30E93DED2CE3
:1009C20002302000D8006430FC0068087C02E80095
:1009D20069090318890AE9006B08803AFC00803033
:1009E2007C02031DF62CC9306A02031CF92CFA2C76
:1009F200FF2CC8302000EA000030EB00200069081C
:100A0200803AFC0080307C02031D092DC930680247
:100A1200031C0C2D0D2D122DC8302000E8000030D3
:100A2200E90020006B08F1006A08F0008031CC2058
:100A320084317008F80020005808F9006908F100B4
:100A42006808F0008031CC2084317008FA00200060
:100A5200590882314E2284312E000D1021001314C8
:100A6200080020002E08803AAF0080302F02031DBC
:100A72003C2D01302D02031C3F2D402D622D200004
:100A82002C08803AAF0080302F02031D4A2D01301E
:100A92002B02031C4D2D4E2D622D20002E08B0007E
:100AA2002D08AF00AF35B00D2F082B02B300300870
:100AB2002C3BB4002D082B07B5002E082C3DB600A8
:100AC200952D2000AE1F662D672D882D2C08803AAB
:100AD200AF0080302F02031D702D01302B02031C4A
:100AE200732D742D882D20002D082B02B3002E08A3
:100AF2002C3BB4002E08B0002D08AF00AF35B00D6E
:100B02002B082F07B5002C08303DB600952D20008C
:100B12002D082B02B3002E082C3BB4002D082B0706
:100B2200B5002E082C3DB6003408803AAF00803064
:100B32002F02031D9E2D653033020318A12DA22D15
:100B4200B02D20003408803AAF007F302F02031D01
:100B5200AC2D9C3033020318AF2DB02DD52D2000C3
:100B62003408F1003308F0008031CC20853171085F
:100B7200F5007008F40020003408F7003308F6008E
:100B82008331C723853175082000A1007408A000B5
:100B92006430A2000030A300813158218531200049
:100BA2002108B4002008B30020003608803AAF00C4
:100BB20080302F02031DDF2D653035020318E22D30
:100BC200E32DF12D20003608803AAF007F302F024E
:100BD200031DED2D9C3035020318F02DF12D162E3C
:100BE20020003608F1003508F0008031CC20853134
:100BF2007108F5007008F40020003608F700350887
:100C0200F6008331C723853175082000A1007408DE
:100C1200A0006430A2000030A30081315821853148
:100C220020002108B6002008B50020003408803AD0
:100C3200AF0080302F02031D202E01303302031C2F
:100C4200232E242E282E01302000B1002B2E02301C
:100C52002000B1003608803AAF0080302F02031D19
:100C6200342E01303502031C372E382E3C2E013033
:100C72002000B2003F2E02302000B2003408F10002
:100C82003308F0008031CC2085317008F800200054
:100C92003208F9003608F1003508F0008031CC2026
:100CA20085317008FA002000310882314E228531E8
:100CB20008001A302000BA00BB01772E8031B32021
:100CC2008631003A0319662E672E702E20003B08EB
:100CD200203E86008701220019088100722E003012
:100CE200CC2F0130F80078082000BB073A083B02FD
:100CF200031C7C2E7D2E5F2E2608F800F901780851
:100D0200D4007908D5002708F800F9017808F9001D
:100D1200F8017808D4077908D53DE830D4020330C9
:100D2200D53B0A30F0000030F1005508F3005408BA
:100D3200F20082318022863171082000D5007008CD
:100D4200D4002808F800F9017808D2007908D30005
:100D52002908F800F9017808F900F8017808D207A3
:100D62007908D33DE830D2020330D33B0A30F00099
:100D72000030F1005308F3005208F2008231802261
:100D8200863171082000D3007008D2002A08F800CA
:100D9200F9017808D0007908D1002B08F800F90190
:100DA2007808F900F8017808D0077908D13DE830D1
:100DB200D0020330D13B0A30F0000030F10051087C
:100DC200F3005008F200823180228631710820003F
:100DD200D1007008D0002C08F800F9017808CE0084
:100DE2007908CF002D08F800F9017808F900F80118
:100DF2007808CE077908CF3DE830CE020330CF3BEA
:100E02000A30F0000030F1004F08F3004E08F20003
:100E120082318022863171082000CF007008CE0016
:100E22002E08F800F9017808CC007908CD002F08C7
:100E3200F800F9017808F900F8017808CC07790878
:100E4200CD3D05304D02DD3003194C0203182A2F27
:100E52002C2F01302D2F0030F800F9017808CC003A
:100E62007908CD003008F800F9017808CA0079083D
:100E7200CB003108F800F9017808F900F801780888
:100E8200CA077908CB3D05304B02DD3003194A020F
:100E920003184C2F4E2F01304F2F0030F800F9016C
:100EA2007808CA007908CB003208F800F9017808FE
:100EB200C8007908C9003308F800F9017808F90078
:100EC200F8017808C8077908C93DE83048060330B8
:100ED20003194906031D6E2F6F2F722FC801C90116
:100EE200842FDC304806053003194906031D7A2F8A
:100EF2007B2F802F0130C8000030C900842F0230C0
:100F0200C8000030C9003408F800F9017808C600AA
:100F12007908C7003508F800F9017808F900F801E6
:100F22007808C6077908C73D05304702DD30031946
:100F3200460203189D2F9F2F0130A02F0030F8008A
:100F4200F9017808C6007908C7003608F800F901E7
:100F52007808C4007908C5003708F800F901780854
:100F6200F900F8017808C4077908C53D3808F80087
:100F7200F90178082100C7007908C8002000390863
:100F8200F800F9017808F900F80178082100C7078C
:100F92007908C83D01300800753084008030850032
:100FA2005E30860000308700123080313720873172
:100FB2003A30840081308500C930860000308700D5
:100FC2001E30803137208731443084000030850064
:100FD2001A30803131208731A03084000030850002
:100FE2002930803131208731203084000130850062
:0E0FF2001430803131208731200083317A2B7A
:020000040001F9
:02000E008F3E23
:020012009F3F0E
:00000001FF
